:100000000C9434000C9449000C9449000C94490061
:100010000C9449000C9449000C9449000C9449003C
:100020000C9449000C9449000C9449000C9449002C
:100030000C9449000C9449000C9449000C9449001C
:100040000C9449000C9449000C9449000C9449000C
:100050000C9449000C9449000C9449000C944900FC
:100060000C9449000C94490011241FBECFEFD8E036
:10007000DEBFCDBF11E0A0E0B1E0ECE5F1E002C0F1
:1000800005900D92AE31B107D9F70E944B000C9448
:10009000AC000C940000CF93DF93CDB7DEB76E9722
:1000A0000FB6F894DEBF0FBECDBF8AE0E0E0F1E00E
:1000B000DE01119601900D928A95E1F78AE0EAE05F
:1000C000F1E0DE011B9601900D928A95E1F78AE03E
:1000D000E4E1F1E0DE01559601900D928A95E1F799
:1000E0008FEF84B98AB987B940E050E031C0EBE0C6
:1000F000F0E0EC0FFD1FE40FF51F808185B980E073
:1001000090E009C0E5E1F0E0EC0FFD1FE40FF51F02
:10011000208128B901968A309105A4F380E090E00F
:1001200012C0E1E0F0E0EC0FFD1FE80FF91F2081A5
:100130002BB92FEF39E668E1215030406040E1F7FC
:1001400000C0000001968A3091055CF34F5F5F4F5D
:0C0150004A30510564F2C8CFF894FFCF8C
:10015C00014F12064C24200F000400090200090470
:0E016C0004010000010702060404000700045D
:00000001FF
